:0400000001EF3EF0DE
:107B6600899689941200C7EC3DF0DCEC3DF0B8EF45
:107B76003DF000EF00F03F065B4F666D7D077F6FBF
:107B8600777C395E797100FF0F0EC16EC30E926E5F
:107B96009368000E956EB3EC3DF0120081CF18F09D
:107BA60018501218176E175012141B6E18C012F0C8
:107BB6001200D1EC3DF03BEC3EF01AEC3EF0000E2C
:107BC600186E0A0E176EE9EC3DF01200000E1A6EE2
:107BD600010E196EF5EF3DF0C80E00D0E82EFDD768
:107BE600194A1A2A1750195C18501A58D8A0FEEFCD
:107BF6003DF000EF3EF0EFEF3DF012007C0EF66E2A
:107C06007B0EF76E000EF86E00EE01F010EE12F02D
:107C16000900F5CFEEFFE550E150FAE1166A156A64
:107C2600146A136A000EF86E0001B6EF3DF08996ED
:107C36008984010E1624D96EDA6A000EDA22DF5024
:107C46008C6E000E186E0A0E176EE9EC3DF08986F2
:107C56008994010E1524D96EDA6A000EDA22DF50F5
:107C66008C6E000E186E0A0E176EE9EC3DF01200CF
:107C76001BA640EF3EF042EF3EF0FFEF3FF081A83B
:107C860047EF3EF049EF3EF05CEF3FF081AA4EEF42
:107C96003EF050EF3EF00EEF3FF08EEF3EF0000E5E
:107CA600146E0F0E136E010E166E050E156EFFEF97
:107CB6003FF0000E146E000E136E100E166E000EC0
:107CC600156EFFEF3FF0000E146E030E136E100ECE
:107CD600166E030E156EFFEF3FF0000E146E060EC5
:107CE600136E100E166E060E156EFFEF3FF0000EA9
:107CF600146E090E136E100E166E090E156EFFEF3A
:107D06003FF0000E146E0C0E136E010E166E020E70
:107D1600156EFFEF3FF013C017F014C018F018509F
:107D2600000AD8B499EF3EF0FFEF3FF01750000A73
:107D3600D8B452EF3EF0010AD8B45CEF3EF0030A25
:107D4600D8B45CEF3EF0010AD8B45CEF3EF0070A07
:107D5600D8B466EF3EF0010AD8B466EF3EF0030AE7
:107D6600D8B466EF3EF0010AD8B470EF3EF00F0AC1
:107D7600D8B470EF3EF0010AD8B470EF3EF0030AB3
:107D8600D8B47AEF3EF0010AD8B47AEF3EF0070A8B
:107D9600D8B47AEF3EF0010AD8B484EF3EF0030A75
:107DA600D8B484EF3EF0010AD8B484EF3EF0FFEF7A
:107DB6003FF0000E146E0D0E136E010E166E030EBE
:107DC600156EFFEF3FF0000E146E020E136E100ECE
:107DD600166E020E156EFFEF3FF0000E146E050EC6
:107DE600136E100E166E050E156EFFEF3FF0000EA9
:107DF600146E070E136E100E166E070E156EFFEF3D
:107E06003FF0000E146E0B0E136E010E166E010E71
:107E1600156EFFEF3FF013C017F014C018F018509E
:107E2600000AD8B419EF3FF0FFEF3FF01750000AF1
:107E3600D8B4DCEF3EF0010AD8B4DCEF3EF0030A1A
:107E4600D8B4DCEF3EF0010AD8B4E6EF3EF0070AFC
:107E5600D8B466EF3EF0010AD8B466EF3EF0030AE6
:107E6600D8B4F0EF3EF0010AD8B4F0EF3EF00F0AB6
:107E7600D8B4FAEF3EF0010AD8B4FAEF3EF0030A9E
:107E8600D8B4FAEF3EF0010AD8B4FAEF3EF0070A8A
:107E9600D8B404EF3FF0010AD8B404EF3FF0030A68
:107EA600D8B4DCEF3EF0010AD8B4DCEF3EF0FFEFC9
:107EB6003FF081AA61EF3FF063EF3FF0B1EF3FF093
:107EC60013C017F014C018F01850000AD8B46EEF9B
:107ED6003FF0FFEF3FF01750000AD8B466EF3EF0D0
:107EE600010AD8B466EF3EF0030AD8B466EF3EF056
:107EF600010AD8B470EF3EF0070AD8B470EF3EF02E
:107F0600010AD8B470EF3EF0030AD8B47AEF3EF017
:107F1600010AD8B47AEF3EF00F0AD8B47AEF3EF0F1
:107F2600010AD8B484EF3EF0030AD8B484EF3EF0D9
:107F3600010AD8B484EF3EF0070AD8B452EF3EF0F7
:107F4600010AD8B452EF3EF0030AD8B452EF3EF01D
:107F5600010AD8B45CEF3EF0FFEF3FF013C017F014
:107F660014C018F01850000AD8B4BCEF3FF0FFEF69
:107F76003FF01750000AD8B4E6EF3EF0010AD8B435
:107F8600E6EF3EF0030AD8B466EF3EF0010AD8B435
:107F9600F0EF3EF0070AD8B4F0EF3EF0010AD8B48D
:107FA600FAEF3EF0030AD8B4FAEF3EF0010AD8B46D
:107FB60004EF3FF00F0AD8B404EF3FF0010AD8B43B
:107FC60004EF3FF0030AD8B404EF3FF0010AD8B437
:107FD600DCEF3EF0070AD8B4DCEF3EF0010AD8B475
:107FE600E6EF3EF0030AD8B4E6EF3EF0010AD8B455
:0A7FF600E6EF3EF0FFEF3FF012004F
:020000040030CA
:0E000000FF021F1EFF8381FF0FC00FE00F40A5
:00000001FF
